{
  "_format": "hh-sol-artifact-1",
  "contractName": "TokenRegistry",
  "sourceName": "contracts/TokenRegistry.sol",
  "abi": [
    {
      "inputs": [
        {
          "internalType": "address",
          "name": "initialOwner",
          "type": "address"
        }
      ],
      "stateMutability": "nonpayable",
      "type": "constructor"
    },
    {
      "inputs": [
        {
          "internalType": "address",
          "name": "owner",
          "type": "address"
        }
      ],
      "name": "OwnableInvalidOwner",
      "type": "error"
    },
    {
      "inputs": [
        {
          "internalType": "address",
          "name": "account",
          "type": "address"
        }
      ],
      "name": "OwnableUnauthorizedAccount",
      "type": "error"
    },
    {
      "anonymous": false,
      "inputs": [
        {
          "indexed": true,
          "internalType": "address",
          "name": "previousOwner",
          "type": "address"
        },
        {
          "indexed": true,
          "internalType": "address",
          "name": "newOwner",
          "type": "address"
        }
      ],
      "name": "OwnershipTransferred",
      "type": "event"
    },
    {
      "anonymous": false,
      "inputs": [
        {
          "indexed": false,
          "internalType": "string",
          "name": "name",
          "type": "string"
        },
        {
          "indexed": false,
          "internalType": "string",
          "name": "symbol",
          "type": "string"
        },
        {
          "indexed": true,
          "internalType": "address",
          "name": "tokenAddress",
          "type": "address"
        }
      ],
      "name": "TokenRegistered",
      "type": "event"
    },
    {
      "inputs": [
        {
          "internalType": "address",
          "name": "_tokenAddress",
          "type": "address"
        }
      ],
      "name": "getTokenInfo",
      "outputs": [
        {
          "internalType": "string",
          "name": "name",
          "type": "string"
        },
        {
          "internalType": "string",
          "name": "symbol",
          "type": "string"
        },
        {
          "internalType": "address",
          "name": "tokenAddress",
          "type": "address"
        }
      ],
      "stateMutability": "view",
      "type": "function"
    },
    {
      "inputs": [
        {
          "internalType": "address",
          "name": "_tokenAddress",
          "type": "address"
        }
      ],
      "name": "isTokenRegistered",
      "outputs": [
        {
          "internalType": "bool",
          "name": "",
          "type": "bool"
        }
      ],
      "stateMutability": "view",
      "type": "function"
    },
    {
      "inputs": [],
      "name": "owner",
      "outputs": [
        {
          "internalType": "address",
          "name": "",
          "type": "address"
        }
      ],
      "stateMutability": "view",
      "type": "function"
    },
    {
      "inputs": [
        {
          "internalType": "string",
          "name": "_name",
          "type": "string"
        },
        {
          "internalType": "string",
          "name": "_symbol",
          "type": "string"
        },
        {
          "internalType": "address",
          "name": "_tokenAddress",
          "type": "address"
        }
      ],
      "name": "registerToken",
      "outputs": [],
      "stateMutability": "nonpayable",
      "type": "function"
    },
    {
      "inputs": [],
      "name": "renounceOwnership",
      "outputs": [],
      "stateMutability": "nonpayable",
      "type": "function"
    },
    {
      "inputs": [],
      "name": "totalTokens",
      "outputs": [
        {
          "internalType": "uint256",
          "name": "",
          "type": "uint256"
        }
      ],
      "stateMutability": "view",
      "type": "function"
    },
    {
      "inputs": [
        {
          "internalType": "address",
          "name": "newOwner",
          "type": "address"
        }
      ],
      "name": "transferOwnership",
      "outputs": [],
      "stateMutability": "nonpayable",
      "type": "function"
    }
  ],
  "bytecode": "0x608060405234801561001057600080fd5b50604051610abf380380610abf83398101604081905261002f916100be565b806001600160a01b03811661005e57604051631e4fbdf760e01b81526000600482015260240160405180910390fd5b6100678161006e565b50506100ee565b600080546001600160a01b038381166001600160a01b0319831681178455604051919092169283917f8be0079c531659141344cd1fd0a4f28419497f9722a3daafe3b4186f6b6457e09190a35050565b6000602082840312156100d057600080fd5b81516001600160a01b03811681146100e757600080fd5b9392505050565b6109c2806100fd6000396000f3fe608060405234801561001057600080fd5b506004361061007d5760003560e01c8063715018a61161005b578063715018a6146100fd5780637e1c0c09146101055780638da5cb5b14610116578063f2fde38b1461013157600080fd5b80631f69565f1461008257806326aa101f146100ad578063575c6fb9146100e8575b600080fd5b61009561009036600461061b565b610144565b6040516100a493929190610683565b60405180910390f35b6100d86100bb36600461061b565b6001600160a01b0316600090815260026020526040902054151590565b60405190151581526020016100a4565b6100fb6100f6366004610764565b610339565b005b6100fb610530565b6001546040519081526020016100a4565b6000546040516001600160a01b0390911681526020016100a4565b6100fb61013f36600461061b565b610544565b6001600160a01b03811660009081526002602052604081205460609182918082036101c45760405162461bcd60e51b815260206004820152602560248201527f546f6b656e52656769737472793a20746f6b656e206e6f6e20656e72656769736044820152643a3961d49760d91b60648201526084015b60405180910390fd5b600060016101d281846107d8565b815481106101e2576101e26107ff565b9060005260206000209060030201905080600001816001018260020160009054906101000a90046001600160a01b031682805461021e90610815565b80601f016020809104026020016040519081016040528092919081815260200182805461024a90610815565b80156102975780601f1061026c57610100808354040283529160200191610297565b820191906000526020600020905b81548152906001019060200180831161027a57829003601f168201915b505050505092508180546102aa90610815565b80601f01602080910402602001604051908101604052809291908181526020018280546102d690610815565b80156103235780601f106102f857610100808354040283529160200191610323565b820191906000526020600020905b81548152906001019060200180831161030657829003601f168201915b5050505050915094509450945050509193909250565b6001600160a01b0381166103c05760405162461bcd60e51b815260206004820152604260248201527f546f6b656e52656769737472793a206164726573736520647520746f6b656e2060448201527f6e6520706575742070617320c3aa747265206c2761647265737365207ac3a972606482015261379760f11b608482015260a4016101bb565b6001600160a01b038116600090815260026020526040902054156104375760405162461bcd60e51b815260206004820152602860248201527f546f6b656e52656769737472793a20746f6b656e2064c3a96ac3a020656e726560448201526733b4b9ba3961d49760c11b60648201526084016101bb565b60408051606081018252848152602081018490526001600160a01b03831691810191909152600180548082018255600091909152815160039091027fb10e2d527612073b26eecdfd717e6a320cf44b4afac2b0732d9fcbe2b7fa0cf6019081906104a1908261089e565b50602082015160018201906104b6908261089e565b50604091820151600291820180546001600160a01b0319166001600160a01b039283161790556001549084166000818152602093909352918390205590517f9d123da03f49a46dedce49fde6c6bdc57cf35381b15b147fcc0c3bb2225564d090610523908690869061095e565b60405180910390a2505050565b610538610582565b61054260006105af565b565b61054c610582565b6001600160a01b03811661057657604051631e4fbdf760e01b8152600060048201526024016101bb565b61057f816105af565b50565b6000546001600160a01b031633146105425760405163118cdaa760e01b81523360048201526024016101bb565b600080546001600160a01b038381166001600160a01b0319831681178455604051919092169283917f8be0079c531659141344cd1fd0a4f28419497f9722a3daafe3b4186f6b6457e09190a35050565b80356001600160a01b038116811461061657600080fd5b919050565b60006020828403121561062d57600080fd5b610636826105ff565b9392505050565b6000815180845260005b8181101561066357602081850181015186830182015201610647565b506000602082860101526020601f19601f83011685010191505092915050565b606081526000610696606083018661063d565b82810360208401526106a8818661063d565b91505060018060a01b0383166040830152949350505050565b634e487b7160e01b600052604160045260246000fd5b600082601f8301126106e857600080fd5b813567ffffffffffffffff80821115610703576107036106c1565b604051601f8301601f19908116603f0116810190828211818310171561072b5761072b6106c1565b8160405283815286602085880101111561074457600080fd5b836020870160208301376000602085830101528094505050505092915050565b60008060006060848603121561077957600080fd5b833567ffffffffffffffff8082111561079157600080fd5b61079d878388016106d7565b945060208601359150808211156107b357600080fd5b506107c0868287016106d7565b9250506107cf604085016105ff565b90509250925092565b818103818111156107f957634e487b7160e01b600052601160045260246000fd5b92915050565b634e487b7160e01b600052603260045260246000fd5b600181811c9082168061082957607f821691505b60208210810361084957634e487b7160e01b600052602260045260246000fd5b50919050565b601f82111561089957600081815260208120601f850160051c810160208610156108765750805b601f850160051c820191505b8181101561089557828155600101610882565b5050505b505050565b815167ffffffffffffffff8111156108b8576108b86106c1565b6108cc816108c68454610815565b8461084f565b602080601f83116001811461090157600084156108e95750858301515b600019600386901b1c1916600185901b178555610895565b600085815260208120601f198616915b8281101561093057888601518255948401946001909101908401610911565b508582101561094e5787850151600019600388901b60f8161c191681555b5050505050600190811b01905550565b604081526000610971604083018561063d565b8281036020840152610983818561063d565b9594505050505056fea26469706673582212207a0b6e58003f4f5181777b1bd4918f2212894c58ce60cfedc50ba84511a4a99c64736f6c63430008140033",
  "linkReferences": {},
  "deployedLinkReferences": {}
}