{
  "_format": "hh-sol-artifact-1",
  "contractName": "AssetTokenization",
  "sourceName": "contracts/AssetTokenization.sol",
  "abi": [
    {
      "inputs": [
        {
          "internalType": "address",
          "name": "_identityRegistryAddress",
          "type": "address"
        },
        {
          "internalType": "address",
          "name": "_complianceAddress",
          "type": "address"
        },
        {
          "internalType": "address",
          "name": "_tokenRegistryAddress",
          "type": "address"
        },
        {
          "internalType": "address",
          "name": "initialOwner",
          "type": "address"
        }
      ],
      "stateMutability": "nonpayable",
      "type": "constructor"
    },
    {
      "inputs": [
        {
          "internalType": "address",
          "name": "owner",
          "type": "address"
        }
      ],
      "name": "OwnableInvalidOwner",
      "type": "error"
    },
    {
      "inputs": [
        {
          "internalType": "address",
          "name": "account",
          "type": "address"
        }
      ],
      "name": "OwnableUnauthorizedAccount",
      "type": "error"
    },
    {
      "anonymous": false,
      "inputs": [
        {
          "indexed": true,
          "internalType": "address",
          "name": "previousOwner",
          "type": "address"
        },
        {
          "indexed": true,
          "internalType": "address",
          "name": "newOwner",
          "type": "address"
        }
      ],
      "name": "OwnershipTransferred",
      "type": "event"
    },
    {
      "anonymous": false,
      "inputs": [
        {
          "indexed": true,
          "internalType": "address",
          "name": "tokenAddress",
          "type": "address"
        },
        {
          "indexed": false,
          "internalType": "string",
          "name": "name",
          "type": "string"
        },
        {
          "indexed": false,
          "internalType": "string",
          "name": "symbol",
          "type": "string"
        }
      ],
      "name": "TokenCreated",
      "type": "event"
    },
    {
      "inputs": [
        {
          "internalType": "string",
          "name": "name",
          "type": "string"
        },
        {
          "internalType": "string",
          "name": "symbol",
          "type": "string"
        }
      ],
      "name": "createToken",
      "outputs": [],
      "stateMutability": "nonpayable",
      "type": "function"
    },
    {
      "inputs": [],
      "name": "owner",
      "outputs": [
        {
          "internalType": "address",
          "name": "",
          "type": "address"
        }
      ],
      "stateMutability": "view",
      "type": "function"
    },
    {
      "inputs": [],
      "name": "renounceOwnership",
      "outputs": [],
      "stateMutability": "nonpayable",
      "type": "function"
    },
    {
      "inputs": [
        {
          "internalType": "address",
          "name": "newOwner",
          "type": "address"
        }
      ],
      "name": "transferOwnership",
      "outputs": [],
      "stateMutability": "nonpayable",
      "type": "function"
    }
  ],
  "bytecode": "0x608060405234801561001057600080fd5b5060405161137238038061137283398101604081905261002f91610117565b806001600160a01b03811661005e57604051631e4fbdf760e01b81526000600482015260240160405180910390fd5b610067816100ab565b5050600180546001600160a01b039485166001600160a01b03199182161790915560028054938516938216939093179092556003805491909316911617905561016b565b600080546001600160a01b038381166001600160a01b0319831681178455604051919092169283917f8be0079c531659141344cd1fd0a4f28419497f9722a3daafe3b4186f6b6457e09190a35050565b80516001600160a01b038116811461011257600080fd5b919050565b6000806000806080858703121561012d57600080fd5b610136856100fb565b9350610144602086016100fb565b9250610152604086016100fb565b9150610160606086016100fb565b905092959194509250565b6111f88061017a6000396000f3fe60806040523480156200001157600080fd5b5060043610620000525760003560e01c80632f2f2d561462000057578063715018a614620000705780638da5cb5b146200007a578063f2fde38b1462000099575b600080fd5b6200006e6200006836600462000344565b620000b0565b005b6200006e620001ac565b600054604080516001600160a01b039092168252519081900360200190f35b6200006e620000aa366004620003af565b620001c4565b620000ba6200020c565b60008282604051620000cc906200028b565b620000d992919062000429565b604051809103906000f080158015620000f6573d6000803e3d6000fd5b5060035460405163575c6fb960e01b81529192506001600160a01b03169063575c6fb9906200012e908690869086906004016200045b565b600060405180830381600087803b1580156200014957600080fd5b505af11580156200015e573d6000803e3d6000fd5b50505050806001600160a01b03167fffc04f682c7b287e4b552dacd4b833d7c33dc0549cd6da84388408e4830c056284846040516200019f92919062000429565b60405180910390a2505050565b620001b66200020c565b620001c260006200023b565b565b620001ce6200020c565b6001600160a01b038116620001fe57604051631e4fbdf760e01b8152600060048201526024015b60405180910390fd5b62000209816200023b565b50565b6000546001600160a01b03163314620001c25760405163118cdaa760e01b8152336004820152602401620001f5565b600080546001600160a01b038381166001600160a01b0319831681178455604051919092169283917f8be0079c531659141344cd1fd0a4f28419497f9722a3daafe3b4186f6b6457e09190a35050565b610d25806200049e83390190565b634e487b7160e01b600052604160045260246000fd5b600082601f830112620002c157600080fd5b813567ffffffffffffffff80821115620002df57620002df62000299565b604051601f8301601f19908116603f011681019082821181831017156200030a576200030a62000299565b816040528381528660208588010111156200032457600080fd5b836020870160208301376000602085830101528094505050505092915050565b600080604083850312156200035857600080fd5b823567ffffffffffffffff808211156200037157600080fd5b6200037f86838701620002af565b935060208501359150808211156200039657600080fd5b50620003a585828601620002af565b9150509250929050565b600060208284031215620003c257600080fd5b81356001600160a01b0381168114620003da57600080fd5b9392505050565b6000815180845260005b818110156200040957602081850181015186830182015201620003eb565b506000602082860101526020601f19601f83011685010191505092915050565b6040815260006200043e6040830185620003e1565b8281036020840152620004528185620003e1565b95945050505050565b606081526000620004706060830186620003e1565b8281036020840152620004848186620003e1565b91505060018060a01b038316604083015294935050505056fe60806040523480156200001157600080fd5b5060405162000d2538038062000d258339810160408190526200003491620002d6565b81816003620000448382620003cf565b506004620000538282620003cf565b5050506200008f336200006b6200009760201b60201c565b6200007b9060ff16600a620005b0565b62000089906103e8620005c5565b6200009c565b5050620005f5565b601290565b6001600160a01b038216620000cc5760405163ec442f0560e01b8152600060048201526024015b60405180910390fd5b620000da60008383620000de565b5050565b6001600160a01b0383166200010d578060026000828254620001019190620005df565b90915550620001819050565b6001600160a01b03831660009081526020819052604090205481811015620001625760405163391434e360e21b81526001600160a01b03851660048201526024810182905260448101839052606401620000c3565b6001600160a01b03841660009081526020819052604090209082900390555b6001600160a01b0382166200019f57600280548290039055620001be565b6001600160a01b03821660009081526020819052604090208054820190555b816001600160a01b0316836001600160a01b03167fddf252ad1be2c89b69c2b068fc378daa952ba7f163c4a11628f55a4df523b3ef836040516200020491815260200190565b60405180910390a3505050565b634e487b7160e01b600052604160045260246000fd5b600082601f8301126200023957600080fd5b81516001600160401b038082111562000256576200025662000211565b604051601f8301601f19908116603f0116810190828211818310171562000281576200028162000211565b816040528381526020925086838588010111156200029e57600080fd5b600091505b83821015620002c25785820183015181830184015290820190620002a3565b600093810190920192909252949350505050565b60008060408385031215620002ea57600080fd5b82516001600160401b03808211156200030257600080fd5b620003108683870162000227565b935060208501519150808211156200032757600080fd5b50620003368582860162000227565b9150509250929050565b600181811c908216806200035557607f821691505b6020821081036200037657634e487b7160e01b600052602260045260246000fd5b50919050565b601f821115620003ca57600081815260208120601f850160051c81016020861015620003a55750805b601f850160051c820191505b81811015620003c657828155600101620003b1565b5050505b505050565b81516001600160401b03811115620003eb57620003eb62000211565b6200040381620003fc845462000340565b846200037c565b602080601f8311600181146200043b5760008415620004225750858301515b600019600386901b1c1916600185901b178555620003c6565b600085815260208120601f198616915b828110156200046c578886015182559484019460019091019084016200044b565b50858210156200048b5787850151600019600388901b60f8161c191681555b5050505050600190811b01905550565b634e487b7160e01b600052601160045260246000fd5b600181815b80851115620004f2578160001904821115620004d657620004d66200049b565b80851615620004e457918102915b93841c9390800290620004b6565b509250929050565b6000826200050b57506001620005aa565b816200051a57506000620005aa565b81600181146200053357600281146200053e576200055e565b6001915050620005aa565b60ff8411156200055257620005526200049b565b50506001821b620005aa565b5060208310610133831016604e8410600b841016171562000583575081810a620005aa565b6200058f8383620004b1565b8060001904821115620005a657620005a66200049b565b0290505b92915050565b6000620005be8383620004fa565b9392505050565b8082028115828204841417620005aa57620005aa6200049b565b80820180821115620005aa57620005aa6200049b565b61072080620006056000396000f3fe608060405234801561001057600080fd5b50600436106100935760003560e01c8063313ce56711610066578063313ce567146100fe57806370a082311461010d57806395d89b4114610136578063a9059cbb1461013e578063dd62ed3e1461015157600080fd5b806306fdde0314610098578063095ea7b3146100b657806318160ddd146100d957806323b872dd146100eb575b600080fd5b6100a061018a565b6040516100ad919061056a565b60405180910390f35b6100c96100c43660046105d4565b61021c565b60405190151581526020016100ad565b6002545b6040519081526020016100ad565b6100c96100f93660046105fe565b610236565b604051601281526020016100ad565b6100dd61011b36600461063a565b6001600160a01b031660009081526020819052604090205490565b6100a061025a565b6100c961014c3660046105d4565b610269565b6100dd61015f36600461065c565b6001600160a01b03918216600090815260016020908152604080832093909416825291909152205490565b6060600380546101999061068f565b80601f01602080910402602001604051908101604052809291908181526020018280546101c59061068f565b80156102125780601f106101e757610100808354040283529160200191610212565b820191906000526020600020905b8154815290600101906020018083116101f557829003601f168201915b5050505050905090565b60003361022a818585610277565b60019150505b92915050565b600033610244858285610289565b61024f85858561030c565b506001949350505050565b6060600480546101999061068f565b60003361022a81858561030c565b610284838383600161036b565b505050565b6001600160a01b03838116600090815260016020908152604080832093861683529290522054600019811461030657818110156102f757604051637dc7a0d960e11b81526001600160a01b038416600482015260248101829052604481018390526064015b60405180910390fd5b6103068484848403600061036b565b50505050565b6001600160a01b03831661033657604051634b637e8f60e11b8152600060048201526024016102ee565b6001600160a01b0382166103605760405163ec442f0560e01b8152600060048201526024016102ee565b610284838383610440565b6001600160a01b0384166103955760405163e602df0560e01b8152600060048201526024016102ee565b6001600160a01b0383166103bf57604051634a1406b160e11b8152600060048201526024016102ee565b6001600160a01b038085166000908152600160209081526040808320938716835292905220829055801561030657826001600160a01b0316846001600160a01b03167f8c5be1e5ebec7d5bd14f71427d1e84f3dd0314c0f7b2291e5b200ac8c7c3b9258460405161043291815260200190565b60405180910390a350505050565b6001600160a01b03831661046b57806002600082825461046091906106c9565b909155506104dd9050565b6001600160a01b038316600090815260208190526040902054818110156104be5760405163391434e360e21b81526001600160a01b038516600482015260248101829052604481018390526064016102ee565b6001600160a01b03841660009081526020819052604090209082900390555b6001600160a01b0382166104f957600280548290039055610518565b6001600160a01b03821660009081526020819052604090208054820190555b816001600160a01b0316836001600160a01b03167fddf252ad1be2c89b69c2b068fc378daa952ba7f163c4a11628f55a4df523b3ef8360405161055d91815260200190565b60405180910390a3505050565b600060208083528351808285015260005b818110156105975785810183015185820160400152820161057b565b506000604082860101526040601f19601f8301168501019250505092915050565b80356001600160a01b03811681146105cf57600080fd5b919050565b600080604083850312156105e757600080fd5b6105f0836105b8565b946020939093013593505050565b60008060006060848603121561061357600080fd5b61061c846105b8565b925061062a602085016105b8565b9150604084013590509250925092565b60006020828403121561064c57600080fd5b610655826105b8565b9392505050565b6000806040838503121561066f57600080fd5b610678836105b8565b9150610686602084016105b8565b90509250929050565b600181811c908216806106a357607f821691505b6020821081036106c357634e487b7160e01b600052602260045260246000fd5b50919050565b8082018082111561023057634e487b7160e01b600052601160045260246000fdfea26469706673582212207fd0440a3be408e3773701e75716b60090df51c8d48f94525e2601b8008a851964736f6c63430008140033a264697066735822122030be2d05e3c3f344b9cb8d7805dee127e8cd9d45269ad92c821bdf3b63fde8f664736f6c63430008140033",
  "linkReferences": {},
  "deployedLinkReferences": {}
}